{
  "contractName": "ChainBNB",
  "abi": [
    {
      "constant": true,
      "inputs": [
        {
          "internalType": "uint256",
          "name": "",
          "type": "uint256"
        }
      ],
      "name": "rentalPlaces",
      "outputs": [
        {
          "internalType": "uint256",
          "name": "rentalPlaceID",
          "type": "uint256"
        },
        {
          "internalType": "address payable",
          "name": "placeOwner",
          "type": "address"
        },
        {
          "internalType": "uint256",
          "name": "currentRent",
          "type": "uint256"
        },
        {
          "internalType": "string",
          "name": "imageIPFShash",
          "type": "string"
        },
        {
          "internalType": "string",
          "name": "placeAddress",
          "type": "string"
        },
        {
          "internalType": "bool",
          "name": "isBiddingActive",
          "type": "bool"
        },
        {
          "internalType": "uint256",
          "name": "biddingStartDate",
          "type": "uint256"
        },
        {
          "internalType": "uint256",
          "name": "biddingEndDate",
          "type": "uint256"
        },
        {
          "internalType": "uint256",
          "name": "highestBid",
          "type": "uint256"
        },
        {
          "internalType": "address",
          "name": "highestBidder",
          "type": "address"
        },
        {
          "internalType": "uint256",
          "name": "numberOfBids",
          "type": "uint256"
        },
        {
          "internalType": "string",
          "name": "monthOccupancy",
          "type": "string"
        }
      ],
      "payable": false,
      "stateMutability": "view",
      "type": "function"
    },
    {
      "constant": false,
      "inputs": [
        {
          "internalType": "uint256",
          "name": "_rent",
          "type": "uint256"
        },
        {
          "internalType": "string",
          "name": "_placeAddress",
          "type": "string"
        },
        {
          "internalType": "string",
          "name": "_imageIPFShash",
          "type": "string"
        },
        {
          "internalType": "string",
          "name": "_occupancy",
          "type": "string"
        }
      ],
      "name": "addRentalPlace",
      "outputs": [],
      "payable": false,
      "stateMutability": "nonpayable",
      "type": "function"
    },
    {
      "constant": true,
      "inputs": [],
      "name": "getNumRentalPlaces",
      "outputs": [
        {
          "internalType": "uint256",
          "name": "",
          "type": "uint256"
        }
      ],
      "payable": false,
      "stateMutability": "view",
      "type": "function"
    },
    {
      "constant": false,
      "inputs": [
        {
          "internalType": "uint256",
          "name": "_rentalPlaceID",
          "type": "uint256"
        },
        {
          "internalType": "uint256",
          "name": "_startIndex",
          "type": "uint256"
        },
        {
          "internalType": "uint256",
          "name": "_endIndex",
          "type": "uint256"
        }
      ],
      "name": "rentPlace",
      "outputs": [],
      "payable": true,
      "stateMutability": "payable",
      "type": "function"
    },
    {
      "constant": true,
      "inputs": [
        {
          "internalType": "uint256",
          "name": "_rentalPlaceID",
          "type": "uint256"
        },
        {
          "internalType": "address",
          "name": "_renter",
          "type": "address"
        }
      ],
      "name": "getRenterOccupancy",
      "outputs": [
        {
          "internalType": "string",
          "name": "",
          "type": "string"
        }
      ],
      "payable": false,
      "stateMutability": "view",
      "type": "function"
    },
    {
      "constant": true,
      "inputs": [
        {
          "internalType": "uint256",
          "name": "_rentalPlaceID",
          "type": "uint256"
        }
      ],
      "name": "getBiddersBid",
      "outputs": [
        {
          "internalType": "uint256",
          "name": "",
          "type": "uint256"
        }
      ],
      "payable": false,
      "stateMutability": "view",
      "type": "function"
    },
    {
      "constant": false,
      "inputs": [
        {
          "internalType": "uint256",
          "name": "_rentalPlaceID",
          "type": "uint256"
        },
        {
          "internalType": "uint256",
          "name": "_newRent",
          "type": "uint256"
        }
      ],
      "name": "updateRent",
      "outputs": [],
      "payable": false,
      "stateMutability": "nonpayable",
      "type": "function"
    },
    {
      "constant": false,
      "inputs": [
        {
          "internalType": "uint256",
          "name": "_rentalPlaceID",
          "type": "uint256"
        },
        {
          "internalType": "bool",
          "name": "_newBiddingStatus",
          "type": "bool"
        },
        {
          "internalType": "uint256",
          "name": "_startDate",
          "type": "uint256"
        },
        {
          "internalType": "uint256",
          "name": "_endDate",
          "type": "uint256"
        }
      ],
      "name": "changeBiddingStatus",
      "outputs": [],
      "payable": false,
      "stateMutability": "nonpayable",
      "type": "function"
    },
    {
      "constant": false,
      "inputs": [
        {
          "internalType": "uint256",
          "name": "_rentalPlaceID",
          "type": "uint256"
        }
      ],
      "name": "registerBid",
      "outputs": [],
      "payable": true,
      "stateMutability": "payable",
      "type": "function"
    },
    {
      "constant": false,
      "inputs": [
        {
          "internalType": "uint256",
          "name": "_rentalPlaceID",
          "type": "uint256"
        }
      ],
      "name": "updateBid",
      "outputs": [],
      "payable": true,
      "stateMutability": "payable",
      "type": "function"
    },
    {
      "constant": false,
      "inputs": [
        {
          "internalType": "uint256",
          "name": "_rentalPlaceID",
          "type": "uint256"
        }
      ],
      "name": "closeBiddings",
      "outputs": [],
      "payable": true,
      "stateMutability": "payable",
      "type": "function"
    },
    {
      "constant": true,
      "inputs": [
        {
          "internalType": "uint256",
          "name": "_rentalPlaceID",
          "type": "uint256"
        }
      ],
      "name": "getBiddersArrayLength",
      "outputs": [
        {
          "internalType": "uint256",
          "name": "",
          "type": "uint256"
        }
      ],
      "payable": false,
      "stateMutability": "view",
      "type": "function"
    },
    {
      "constant": true,
      "inputs": [
        {
          "internalType": "uint256",
          "name": "_rentalPlaceID",
          "type": "uint256"
        },
        {
          "internalType": "uint256",
          "name": "_index",
          "type": "uint256"
        }
      ],
      "name": "getBidder",
      "outputs": [
        {
          "internalType": "address",
          "name": "",
          "type": "address"
        }
      ],
      "payable": false,
      "stateMutability": "view",
      "type": "function"
    }
  ],
  "bytecode": "0x608060405234801561001057600080fd5b506121c2806100206000396000f3fe6080604052600436106100c25760003560e01c80637ceb9bef1161007f578063be92582511610059578063be925825146104b7578063d0dd99081461058b578063f309f9c414610610578063fef14d8a14610837576100c2565b80637ceb9bef146103cb5780638681efa91461041a57806390c7ade61461045c576100c2565b80632e416fd9146100c757806343129de1146102c75780635a83d683146102f557806367ec28c01461034457806368e71f4a146103725780637c68ed73146103a0575b600080fd5b3480156100d357600080fd5b506102c5600480360360808110156100ea57600080fd5b81019080803590602001909291908035906020019064010000000081111561011157600080fd5b82018360208201111561012357600080fd5b8035906020019184600183028401116401000000008311171561014557600080fd5b91908080601f016020809104026020016040519081016040528093929190818152602001838380828437600081840152601f19601f820116905080830192505050505050509192919290803590602001906401000000008111156101a857600080fd5b8201836020820111156101ba57600080fd5b803590602001918460018302840111640100000000831117156101dc57600080fd5b91908080601f016020809104026020016040519081016040528093929190818152602001838380828437600081840152601f19601f8201169050808301925050505050505091929192908035906020019064010000000081111561023f57600080fd5b82018360208201111561025157600080fd5b8035906020019184600183028401116401000000008311171561027357600080fd5b91908080601f016020809104026020016040519081016040528093929190818152602001838380828437600081840152601f19601f82011690508083019250505050505050919291929050505061087c565b005b6102f3600480360360208110156102dd57600080fd5b810190808035906020019092919050505061097e565b005b34801561030157600080fd5b5061032e6004803603602081101561031857600080fd5b8101908080359060200190929190505050610d2c565b6040518082815260200191505060405180910390f35b6103706004803603602081101561035a57600080fd5b8101908080359060200190929190505050610d8c565b005b61039e6004803603602081101561038857600080fd5b810190808035906020019092919050505061104c565b005b3480156103ac57600080fd5b506103b561145a565b6040518082815260200191505060405180910390f35b3480156103d757600080fd5b50610404600480360360208110156103ee57600080fd5b8101908080359060200190929190505050611463565b6040518082815260200191505060405180910390f35b61045a6004803603606081101561043057600080fd5b81019080803590602001909291908035906020019092919080359060200190929190505050611486565b005b34801561046857600080fd5b506104b56004803603608081101561047f57600080fd5b81019080803590602001909291908035151590602001909291908035906020019092919080359060200190929190505050611a0b565b005b3480156104c357600080fd5b50610510600480360360408110156104da57600080fd5b8101908080359060200190929190803573ffffffffffffffffffffffffffffffffffffffff169060200190929190505050611b2f565b6040518080602001828103825283818151815260200191508051906020019080838360005b83811015610550578082015181840152602081019050610535565b50505050905090810190601f16801561057d5780820380516001836020036101000a031916815260200191505b509250505060405180910390f35b34801561059757600080fd5b506105ce600480360360408110156105ae57600080fd5b810190808035906020019092919080359060200190929190505050611c28565b604051808273ffffffffffffffffffffffffffffffffffffffff1673ffffffffffffffffffffffffffffffffffffffff16815260200191505060405180910390f35b34801561061c57600080fd5b506106496004803603602081101561063357600080fd5b8101908080359060200190929190505050611c7e565b604051808d81526020018c73ffffffffffffffffffffffffffffffffffffffff1673ffffffffffffffffffffffffffffffffffffffff1681526020018b815260200180602001806020018a1515151581526020018981526020018881526020018781526020018673ffffffffffffffffffffffffffffffffffffffff1673ffffffffffffffffffffffffffffffffffffffff1681526020018581526020018060200184810384528d818151815260200191508051906020019080838360005b83811015610723578082015181840152602081019050610708565b50505050905090810190601f1680156107505780820380516001836020036101000a031916815260200191505b5084810383528c818151815260200191508051906020019080838360005b8381101561078957808201518184015260208101905061076e565b50505050905090810190601f1680156107b65780820380516001836020036101000a031916815260200191505b50848103825285818151815260200191508051906020019080838360005b838110156107ef5780820151818401526020810190506107d4565b50505050905090810190601f16801561081c5780820380516001836020036101000a031916815260200191505b509f5050505050505050505050505050505060405180910390f35b34801561084357600080fd5b5061087a6004803603604081101561085a57600080fd5b810190808035906020019092919080359060200190929190505050611ef3565b005b60008081548092919060010191905055506000600160008054815260200190815260200160002090506000548160000181905550338160010160006101000a81548173ffffffffffffffffffffffffffffffffffffffff021916908373ffffffffffffffffffffffffffffffffffffffff1602179055508281600301908051906020019061090b929190611ff2565b5083816004019080519060200190610924929190611ff2565b508181600b01908051906020019061093d929190611ff2565b5060008160050160006101000a81548160ff02191690831515021790555066038d7ea4c6800085028160020181905550600081600a01819055505050505050565b3373ffffffffffffffffffffffffffffffffffffffff166001600083815260200190815260200160002060010160009054906101000a900473ffffffffffffffffffffffffffffffffffffffff1673ffffffffffffffffffffffffffffffffffffffff161415610a39576040517f08c379a00000000000000000000000000000000000000000000000000000000081526004018080602001828103825260248152602001806121456024913960400191505060405180910390fd5b600060016000838152602001908152602001600020600d0160003373ffffffffffffffffffffffffffffffffffffffff1673ffffffffffffffffffffffffffffffffffffffff1681526020019081526020016000206001015411610ae8576040517f08c379a00000000000000000000000000000000000000000000000000000000081526004018080602001828103825260258152602001806121696025913960400191505060405180910390fd5b3460016000838152602001908152602001600020600d0160003373ffffffffffffffffffffffffffffffffffffffff1673ffffffffffffffffffffffffffffffffffffffff16815260200190815260200160002060010160008282540192505081905550600160008281526020019081526020016000206008015460016000838152602001908152602001600020600d0160003373ffffffffffffffffffffffffffffffffffffffff1673ffffffffffffffffffffffffffffffffffffffff1681526020019081526020016000206001015410610c865760016000828152602001908152602001600020600d0160003373ffffffffffffffffffffffffffffffffffffffff1673ffffffffffffffffffffffffffffffffffffffff168152602001908152602001600020600101546001600083815260200190815260200160002060080181905550336001600083815260200190815260200160002060090160006101000a81548173ffffffffffffffffffffffffffffffffffffffff021916908373ffffffffffffffffffffffffffffffffffffffff1602179055505b6001600082815260200190815260200160002060010160009054906101000a900473ffffffffffffffffffffffffffffffffffffffff1673ffffffffffffffffffffffffffffffffffffffff166108fc349081150290604051600060405180830381858888f19350505050158015610d02573d6000803e3d6000fd5b5060016000828152602001908152602001600020600a016000815480929190600101919050555050565b600060016000838152602001908152602001600020600d0160003373ffffffffffffffffffffffffffffffffffffffff1673ffffffffffffffffffffffffffffffffffffffff168152602001908152602001600020600101549050919050565b3373ffffffffffffffffffffffffffffffffffffffff166001600083815260200190815260200160002060010160009054906101000a900473ffffffffffffffffffffffffffffffffffffffff1673ffffffffffffffffffffffffffffffffffffffff1614610e46576040517f08c379a00000000000000000000000000000000000000000000000000000000081526004018080602001828103825260228152602001806121016022913960400191505060405180910390fd5b60008090505b60016000838152602001908152602001600020600c018054905081101561104857600060016000848152602001908152602001600020600c018281548110610e9057fe5b9060005260206000200160009054906101000a900473ffffffffffffffffffffffffffffffffffffffff1690506001600084815260200190815260200160002060090160009054906101000a900473ffffffffffffffffffffffffffffffffffffffff1673ffffffffffffffffffffffffffffffffffffffff168173ffffffffffffffffffffffffffffffffffffffff161461103a5760016000848152602001908152602001600020600d0160008273ffffffffffffffffffffffffffffffffffffffff1673ffffffffffffffffffffffffffffffffffffffff16815260200190815260200160002060000160009054906101000a900473ffffffffffffffffffffffffffffffffffffffff1673ffffffffffffffffffffffffffffffffffffffff166108fc60016000868152602001908152602001600020600d0160008473ffffffffffffffffffffffffffffffffffffffff1673ffffffffffffffffffffffffffffffffffffffff168152602001908152602001600020600101549081150290604051600060405180830381858888f19350505050158015611038573d6000803e3d6000fd5b505b508080600101915050610e4c565b5050565b3373ffffffffffffffffffffffffffffffffffffffff166001600083815260200190815260200160002060010160009054906101000a900473ffffffffffffffffffffffffffffffffffffffff1673ffffffffffffffffffffffffffffffffffffffff161415611107576040517f08c379a00000000000000000000000000000000000000000000000000000000081526004018080602001828103825260248152602001806121456024913960400191505060405180910390fd5b600060016000838152602001908152602001600020600d0160003373ffffffffffffffffffffffffffffffffffffffff1673ffffffffffffffffffffffffffffffffffffffff16815260200190815260200160002060010154146111b6576040517f08c379a00000000000000000000000000000000000000000000000000000000081526004018080602001828103825260258152602001806120dc6025913960400191505060405180910390fd5b600060016000838152602001908152602001600020600d0160003373ffffffffffffffffffffffffffffffffffffffff1673ffffffffffffffffffffffffffffffffffffffff1681526020019081526020016000209050348160010181905550600060016000848152602001908152602001600020600a015414156112aa57346001600084815260200190815260200160002060080181905550336001600084815260200190815260200160002060090160006101000a81548173ffffffffffffffffffffffffffffffffffffffff021916908373ffffffffffffffffffffffffffffffffffffffff160217905550611339565b6001600083815260200190815260200160002060080154341061133857346001600084815260200190815260200160002060080181905550336001600084815260200190815260200160002060090160006101000a81548173ffffffffffffffffffffffffffffffffffffffff021916908373ffffffffffffffffffffffffffffffffffffffff1602179055505b5b6001600083815260200190815260200160002060010160009054906101000a900473ffffffffffffffffffffffffffffffffffffffff1673ffffffffffffffffffffffffffffffffffffffff166108fc349081150290604051600060405180830381858888f193505050501580156113b5573d6000803e3d6000fd5b5060016000838152602001908152602001600020600c013390806001815401808255809150509060018203906000526020600020016000909192909190916101000a81548173ffffffffffffffffffffffffffffffffffffffff021916908373ffffffffffffffffffffffffffffffffffffffff1602179055505060016000838152602001908152602001600020600a01600081548092919060010191905055505050565b60008054905090565b600060016000838152602001908152602001600020600c01805490509050919050565b3373ffffffffffffffffffffffffffffffffffffffff166001600085815260200190815260200160002060010160009054906101000a900473ffffffffffffffffffffffffffffffffffffffff1673ffffffffffffffffffffffffffffffffffffffff161415611541576040517f08c379a00000000000000000000000000000000000000000000000000000000081526004018080602001828103825260228152602001806121236022913960400191505060405180910390fd5b60018282030160016000858152602001908152602001600020600201540234146115b6576040517f08c379a00000000000000000000000000000000000000000000000000000000081526004018080602001828103825260228152602001806120986022913960400191505060405180910390fd5b600060016000858152602001908152602001600020600e0160003373ffffffffffffffffffffffffffffffffffffffff1673ffffffffffffffffffffffffffffffffffffffff16815260200190815260200160002090506001600085815260200190815260200160002060010160009054906101000a900473ffffffffffffffffffffffffffffffffffffffff1673ffffffffffffffffffffffffffffffffffffffff166108fc349081150290604051600060405180830381858888f19350505050158015611689573d6000803e3d6000fd5b50606060016000868152602001908152602001600020600b018054600181600116156101000203166002900480601f0160208091040260200160405190810160405280929190818152602001828054600181600116156101000203166002900480156117365780601f1061170b57610100808354040283529160200191611736565b820191906000526020600020905b81548152906001019060200180831161171957829003601f168201915b5050505050905060006001850390505b838110156117b7577f310000000000000000000000000000000000000000000000000000000000000082828151811061177b57fe5b60200101907effffffffffffffffffffffffffffffffffffffffffffffffffffffffffffff1916908160001a9053508080600101915050611746565b508060016000878152602001908152602001600020600b0190805190602001906117e2929190611ff2565b50606060016000878152602001908152602001600020600b018054600181600116156101000203166002900480601f01602080910402602001604051908101604052809291908181526020018280546001816001161561010002031660029004801561188f5780601f106118645761010080835404028352916020019161188f565b820191906000526020600020905b81548152906001019060200180831161187257829003601f168201915b5050505050905060008090505b815181101561196e577f31000000000000000000000000000000000000000000000000000000000000008282815181106118d257fe5b602001015160f81c60f81b7effffffffffffffffffffffffffffffffffffffffffffffffffffffffffffff191614611961577f300000000000000000000000000000000000000000000000000000000000000082828151811061193157fe5b60200101907effffffffffffffffffffffffffffffffffffffffffffffffffffffffffffff1916908160001a9053505b808060010191505061189c565b5060006001860390505b848110156119e9577f31000000000000000000000000000000000000000000000000000000000000008282815181106119ad57fe5b60200101907effffffffffffffffffffffffffffffffffffffffffffffffffffffffffffff1916908160001a9053508080600101915050611978565b5080836001019080519060200190611a02929190611ff2565b50505050505050565b3373ffffffffffffffffffffffffffffffffffffffff166001600086815260200190815260200160002060010160009054906101000a900473ffffffffffffffffffffffffffffffffffffffff1673ffffffffffffffffffffffffffffffffffffffff1614611ac5576040517f08c379a00000000000000000000000000000000000000000000000000000000081526004018080602001828103825260228152602001806120ba6022913960400191505060405180910390fd5b826001600086815260200190815260200160002060050160006101000a81548160ff02191690831515021790555081600160008681526020019081526020016000206006018190555080600160008681526020019081526020016000206007018190555050505050565b606060016000848152602001908152602001600020600e0160008373ffffffffffffffffffffffffffffffffffffffff1673ffffffffffffffffffffffffffffffffffffffff1681526020019081526020016000206001018054600181600116156101000203166002900480601f016020809104026020016040519081016040528092919081815260200182805460018160011615610100020316600290048015611c1b5780601f10611bf057610100808354040283529160200191611c1b565b820191906000526020600020905b815481529060010190602001808311611bfe57829003601f168201915b5050505050905092915050565b600060016000848152602001908152602001600020600c018281548110611c4b57fe5b9060005260206000200160009054906101000a900473ffffffffffffffffffffffffffffffffffffffff16905092915050565b60016020528060005260406000206000915090508060000154908060010160009054906101000a900473ffffffffffffffffffffffffffffffffffffffff1690806002015490806003018054600181600116156101000203166002900480601f016020809104026020016040519081016040528092919081815260200182805460018160011615610100020316600290048015611d5c5780601f10611d3157610100808354040283529160200191611d5c565b820191906000526020600020905b815481529060010190602001808311611d3f57829003601f168201915b505050505090806004018054600181600116156101000203166002900480601f016020809104026020016040519081016040528092919081815260200182805460018160011615610100020316600290048015611dfa5780601f10611dcf57610100808354040283529160200191611dfa565b820191906000526020600020905b815481529060010190602001808311611ddd57829003601f168201915b5050505050908060050160009054906101000a900460ff16908060060154908060070154908060080154908060090160009054906101000a900473ffffffffffffffffffffffffffffffffffffffff169080600a01549080600b018054600181600116156101000203166002900480601f016020809104026020016040519081016040528092919081815260200182805460018160011615610100020316600290048015611ee95780601f10611ebe57610100808354040283529160200191611ee9565b820191906000526020600020905b815481529060010190602001808311611ecc57829003601f168201915b505050505090508c565b3373ffffffffffffffffffffffffffffffffffffffff166001600084815260200190815260200160002060010160009054906101000a900473ffffffffffffffffffffffffffffffffffffffff1673ffffffffffffffffffffffffffffffffffffffff1614611fca576040517f08c379a000000000000000000000000000000000000000000000000000000000815260040180806020018281038252601f8152602001807f4f6e6c7920746865206f776e65722063616e206d6f646966792072656e74210081525060200191505060405180910390fd5b66038d7ea4c68000810260016000848152602001908152602001600020600201819055505050565b828054600181600116156101000203166002900490600052602060002090601f016020900481019282601f1061203357805160ff1916838001178555612061565b82800160010185558215612061579182015b82811115612060578251825591602001919060010190612045565b5b50905061206e9190612072565b5090565b61209491905b80821115612090576000816000905550600101612078565b5090565b9056fe496e636f727265637420616d6f756e74206f662072656e742070726f7669646564214f6e6c7920746865206f776e65722063616e20656e61626c652062696464696e67214578697374696e67206269646465722063616e6e6f7420637265617465206e6577206269644f6e6c7920746865206f776e65722063616e20636c6f73652062696464696e6773214f776e65722063616e6e6f742072656e74207468656972206f776e20706c616365214f776e65722063616e6e6f7420626964206f6e207468656972206f776e20706c616365214f6e6c79206578697374696e67206269646465722063616e20757064617465206120626964a265627a7a723158208a8d0c4a9b2ae7589668727044b0adc7377ac832a197ffe0ca599c20517518b964736f6c63430005100032",
  "source": "pragma solidity ^0.5.0;\r\n\r\ncontract ChainBNB {\r\n    uint numRentalPlaces;\r\n    \r\n    struct Renter {\r\n        address payable currentRenter;\r\n        string myOccupancyStatus;\r\n    }\r\n    \r\n    struct Bidder {\r\n        address payable bidderAddress;\r\n        uint bid;\r\n    }\r\n    \r\n    struct RentalPlace {\r\n        uint rentalPlaceID;\r\n        address payable placeOwner;\r\n        uint currentRent;\r\n        string imageIPFShash;\r\n        string placeAddress; \r\n        bool isBiddingActive;\r\n        uint biddingStartDate;\r\n        uint biddingEndDate;\r\n        uint highestBid;\r\n        address highestBidder;\r\n        uint numberOfBids;\r\n        string monthOccupancy;\r\n        address[] biddersArray;\r\n        mapping (address => Bidder) bidders;\r\n        mapping (address => Renter) renters;\r\n    }\r\n    \r\n    mapping (uint => RentalPlace) public rentalPlaces;\r\n\r\n    function addRentalPlace(uint _rent, string memory _placeAddress, string memory _imageIPFShash, string memory _occupancy) public {\r\n        numRentalPlaces++;\r\n        RentalPlace storage newRentalPlace = rentalPlaces[numRentalPlaces];\r\n        newRentalPlace.rentalPlaceID = numRentalPlaces;\r\n        newRentalPlace.placeOwner = msg.sender;\r\n        newRentalPlace.imageIPFShash = _imageIPFShash;\r\n        newRentalPlace.placeAddress = _placeAddress;\r\n        newRentalPlace.monthOccupancy = _occupancy;\r\n        newRentalPlace.isBiddingActive = false;\r\n        newRentalPlace.currentRent = _rent * 1 finney;\r\n        newRentalPlace.numberOfBids = 0;\r\n    }\r\n\r\n    function getNumRentalPlaces() public view returns (uint) {\r\n        return numRentalPlaces;\r\n    }\r\n\r\n    function rentPlace(uint _rentalPlaceID, uint _startIndex, uint _endIndex) public payable {\r\n        require(rentalPlaces[_rentalPlaceID].placeOwner != msg.sender, \"Owner cannot rent their own place!\");\r\n        require(msg.value == rentalPlaces[_rentalPlaceID].currentRent * (_endIndex - _startIndex + 1), \"Incorrect amount of rent provided!\");\r\n        Renter storage newRenter = rentalPlaces[_rentalPlaceID].renters[msg.sender];\r\n        \r\n        rentalPlaces[_rentalPlaceID].placeOwner.transfer(msg.value);\r\n        \r\n        bytes memory temp = bytes(rentalPlaces[_rentalPlaceID].monthOccupancy);\r\n        for(uint i = _startIndex-1; i < _endIndex; i++) {\r\n            temp[i] = \"1\";\r\n        }\r\n        rentalPlaces[_rentalPlaceID].monthOccupancy = string(temp);\r\n        \r\n        bytes memory temp2 = bytes(rentalPlaces[_rentalPlaceID].monthOccupancy);\r\n        for(uint j = 0; j < temp2.length; j++) {\r\n            if(temp2[j] != \"1\")\r\n            {\r\n                temp2[j] = \"0\";\r\n            }\r\n        }\r\n        for(uint k = _startIndex-1; k < _endIndex; k++) {\r\n            temp2[k] = \"1\";\r\n        }\r\n        newRenter.myOccupancyStatus = string(temp2);\r\n    }\r\n    \r\n    function getRenterOccupancy(uint _rentalPlaceID, address _renter) public view returns (string memory) {\r\n        return rentalPlaces[_rentalPlaceID].renters[_renter].myOccupancyStatus;\r\n    }\r\n    \r\n    function getBiddersBid(uint _rentalPlaceID) public view returns (uint) {\r\n        return rentalPlaces[_rentalPlaceID].bidders[msg.sender].bid;\r\n    }\r\n    \r\n    function updateRent(uint _rentalPlaceID, uint _newRent) public {\r\n        require(rentalPlaces[_rentalPlaceID].placeOwner == msg.sender, \"Only the owner can modify rent!\");\r\n        rentalPlaces[_rentalPlaceID].currentRent = _newRent * 1 finney;\r\n    }\r\n\r\n    function changeBiddingStatus(uint _rentalPlaceID, bool _newBiddingStatus, uint _startDate, uint _endDate) public {\r\n        require(rentalPlaces[_rentalPlaceID].placeOwner == msg.sender, \"Only the owner can enable bidding!\");\r\n        rentalPlaces[_rentalPlaceID].isBiddingActive = _newBiddingStatus;\r\n        rentalPlaces[_rentalPlaceID].biddingStartDate = _startDate;\r\n        rentalPlaces[_rentalPlaceID].biddingEndDate = _endDate;\r\n        \r\n    }\r\n    \r\n    function registerBid(uint _rentalPlaceID) public payable {\r\n        require(rentalPlaces[_rentalPlaceID].placeOwner != msg.sender, \"Owner cannot bid on their own place!\");\r\n                require(rentalPlaces[_rentalPlaceID].bidders[msg.sender].bid == 0, \"Existing bidder cannot create new bid\");\r\n        Bidder storage newBidder = rentalPlaces[_rentalPlaceID].bidders[msg.sender];\r\n        newBidder.bid = msg.value;\r\n\r\n        if(rentalPlaces[_rentalPlaceID].numberOfBids == 0)\r\n        {\r\n            rentalPlaces[_rentalPlaceID].highestBid = msg.value;\r\n            rentalPlaces[_rentalPlaceID].highestBidder = msg.sender;\r\n        }\r\n\r\n        else \r\n        {\r\n            if(msg.value >= rentalPlaces[_rentalPlaceID].highestBid)\r\n            {\r\n                rentalPlaces[_rentalPlaceID].highestBid = msg.value;\r\n                rentalPlaces[_rentalPlaceID].highestBidder = msg.sender;\r\n            }\r\n        }\r\n        rentalPlaces[_rentalPlaceID].placeOwner.transfer(msg.value);\r\n        rentalPlaces[_rentalPlaceID].biddersArray.push(msg.sender);\r\n        rentalPlaces[_rentalPlaceID].numberOfBids++;\r\n        \r\n    }\r\n    \r\n    function updateBid(uint _rentalPlaceID) public payable {\r\n        require(rentalPlaces[_rentalPlaceID].placeOwner != msg.sender, \"Owner cannot bid on their own place!\");\r\n        require(rentalPlaces[_rentalPlaceID].bidders[msg.sender].bid > 0, \"Only existing bidder can update a bid\");\r\n        rentalPlaces[_rentalPlaceID].bidders[msg.sender].bid += msg.value;\r\n        if(rentalPlaces[_rentalPlaceID].bidders[msg.sender].bid >= rentalPlaces[_rentalPlaceID].highestBid)\r\n        {\r\n            rentalPlaces[_rentalPlaceID].highestBid = rentalPlaces[_rentalPlaceID].bidders[msg.sender].bid;\r\n            rentalPlaces[_rentalPlaceID].highestBidder = msg.sender;\r\n        }\r\n        rentalPlaces[_rentalPlaceID].placeOwner.transfer(msg.value);\r\n        rentalPlaces[_rentalPlaceID].numberOfBids++;\r\n    }\r\n    \r\n    function closeBiddings(uint _rentalPlaceID) public payable {\r\n        require(rentalPlaces[_rentalPlaceID].placeOwner == msg.sender, \"Only the owner can close biddings!\");\r\n        \r\n        for(uint i = 0; i < rentalPlaces[_rentalPlaceID].biddersArray.length; i++)\r\n        {\r\n            address _bidderAddr = rentalPlaces[_rentalPlaceID].biddersArray[i];\r\n            \r\n            if(_bidderAddr != rentalPlaces[_rentalPlaceID].highestBidder)\r\n            {\r\n                rentalPlaces[_rentalPlaceID].bidders[_bidderAddr].bidderAddress.transfer(rentalPlaces[_rentalPlaceID].bidders[_bidderAddr].bid);   \r\n            }\r\n        }\r\n    }\r\n    \r\n    function getBiddersArrayLength(uint _rentalPlaceID) public view returns (uint){\r\n    \r\n        return rentalPlaces[_rentalPlaceID].biddersArray.length;\r\n    }\r\n\r\n    function getBidder(uint _rentalPlaceID, uint _index) public view returns (address){\r\n    \r\n        return rentalPlaces[_rentalPlaceID].biddersArray[_index];\r\n    }\r\n    \r\n}",
  "sourcePath": "C:/Users/Arsh/Desktop/Dreddit Final/contracts/ChainBNB.sol",
  "compiler": {
    "name": "solc",
    "version": "0.5.16+commit.9c3226ce.Emscripten.clang"
  },
  "schemaVersion": "3.2.3",
  "updatedAt": "2020-08-14T22:20:01.434Z",
  "networkType": "ethereum",
  "devdoc": {
    "methods": {}
  },
  "userdoc": {
    "methods": {}
  }
}