{
  "contractName": "ChainBNBProperty",
  "abi": [
    {
      "inputs": [
        {
          "internalType": "uint256",
          "name": "_baseRent",
          "type": "uint256"
        },
        {
          "internalType": "string",
          "name": "_propertyAddress",
          "type": "string"
        }
      ],
      "payable": false,
      "stateMutability": "nonpayable",
      "type": "constructor"
    },
    {
      "anonymous": false,
      "inputs": [
        {
          "indexed": false,
          "internalType": "address",
          "name": "_occupant",
          "type": "address"
        },
        {
          "indexed": false,
          "internalType": "uint256",
          "name": "_value",
          "type": "uint256"
        }
      ],
      "name": "OccupyProperty",
      "type": "event"
    },
    {
      "constant": true,
      "inputs": [],
      "name": "propertyOwner",
      "outputs": [
        {
          "internalType": "address payable",
          "name": "",
          "type": "address"
        }
      ],
      "payable": false,
      "stateMutability": "view",
      "type": "function"
    },
    {
      "constant": false,
      "inputs": [],
      "name": "reserveProperty",
      "outputs": [],
      "payable": true,
      "stateMutability": "payable",
      "type": "function"
    },
    {
      "constant": false,
      "inputs": [
        {
          "internalType": "uint256",
          "name": "_newBaseRent",
          "type": "uint256"
        }
      ],
      "name": "setBaseRent",
      "outputs": [],
      "payable": false,
      "stateMutability": "nonpayable",
      "type": "function"
    },
    {
      "constant": true,
      "inputs": [],
      "name": "getStatus",
      "outputs": [
        {
          "internalType": "enum ChainBNBProperty.Status",
          "name": "",
          "type": "uint8"
        }
      ],
      "payable": false,
      "stateMutability": "view",
      "type": "function"
    },
    {
      "constant": true,
      "inputs": [],
      "name": "getBaseRent",
      "outputs": [
        {
          "internalType": "uint256",
          "name": "",
          "type": "uint256"
        }
      ],
      "payable": false,
      "stateMutability": "view",
      "type": "function"
    }
  ],
  "bytecode": "0x608060405234801561001057600080fd5b506040516106b13803806106b18339818101604052604081101561003357600080fd5b81019080805190602001909291908051604051939291908464010000000082111561005d57600080fd5b8382019150602082018581111561007357600080fd5b825186600182028301116401000000008211171561009057600080fd5b8083526020830192505050908051906020019080838360005b838110156100c45780820151818401526020810190506100a9565b50505050905090810190601f1680156100f15780820380516001836020036101000a031916815260200191505b50604052505050806000908051906020019061010e929190610162565b506000600160006101000a81548160ff0219169083600181111561012e57fe5b021790555060006001806101000a81548160ff02191690831515021790555081600281905550816003819055505050610207565b828054600181600116156101000203166002900490600052602060002090601f016020900481019282601f106101a357805160ff19168380011785556101d1565b828001600101855582156101d1579182015b828111156101d05782518255916020019190600101906101b5565b5b5090506101de91906101e2565b5090565b61020491905b808211156102005760008160009055506001016101e8565b5090565b90565b61049b806102166000396000f3fe60806040526004361061004a5760003560e01c806309db25911461004f5780634e69d5601461007a5780635cd1968c146100b3578063ded26e34146100ee578063f446c38f146100f8575b600080fd5b34801561005b57600080fd5b5061006461014f565b6040518082815260200191505060405180910390f35b34801561008657600080fd5b5061008f610159565b6040518082600181111561009f57fe5b60ff16815260200191505060405180910390f35b3480156100bf57600080fd5b506100ec600480360360208110156100d657600080fd5b8101908080359060200190929190505050610170565b005b6100f661017a565b005b34801561010457600080fd5b5061010d6103ed565b604051808273ffffffffffffffffffffffffffffffffffffffff1673ffffffffffffffffffffffffffffffffffffffff16815260200191505060405180910390f35b6000600254905090565b6000600160009054906101000a900460ff16905090565b8060028190555050565b6000600181111561018757fe5b600160009054906101000a900460ff1660018111156101a257fe5b146101f8576040517f08c379a00000000000000000000000000000000000000000000000000000000081526004018080602001828103825260238152602001806104446023913960400191505060405180910390fd5b600015156001809054906101000a900460ff16151514610263576040517f08c379a00000000000000000000000000000000000000000000000000000000081526004018080602001828103825260308152602001806104146030913960400191505060405180910390fd5b60035434146102da576040517f08c379a00000000000000000000000000000000000000000000000000000000081526004018080602001828103825260188152602001807f496e636f72726563742072656e742070726f766964656421000000000000000081525060200191505060405180910390fd5b60018060006101000a81548160ff021916908360018111156102f857fe5b021790555060006001806101000a81548160ff021916908315150217905550600660009054906101000a900473ffffffffffffffffffffffffffffffffffffffff1673ffffffffffffffffffffffffffffffffffffffff166108fc349081150290604051600060405180830381858888f1935050505015801561037f573d6000803e3d6000fd5b507fed28dc232ae881fa62e4ce9302de452fa470c675971b22f7818f864a169a2bbe3334604051808373ffffffffffffffffffffffffffffffffffffffff1673ffffffffffffffffffffffffffffffffffffffff1681526020018281526020019250505060405180910390a1565b600660009054906101000a900473ffffffffffffffffffffffffffffffffffffffff168156fe42696464696e6720697320616374697665206f6e20746869732070726f70657274792e2042696420696e7374656164215468652070726f70657274792069732063757272656e746c79206f6363757069656421a265627a7a7231582080b1b3ae061370816531dd0f055f178cc86bc9bb073972ac6793b7442971199664736f6c63430005100032",
  "source": "pragma solidity ^0.5.0;\r\n\r\ncontract ChainBNBProperty {\r\n    string propertyAddress;\r\n    \r\n    enum Status { Vacant, Occupied }\r\n    Status currentStatus;\r\n    \r\n    bool isBiddingActive;\r\n    \r\n    uint baseRent;\r\n    uint currentRent;\r\n    uint highestBid;\r\n    uint numberOfBids;\r\n\r\n    address payable public propertyOwner;\r\n    \r\n    event OccupyProperty(address _occupant, uint _value);\r\n\r\n    constructor(uint _baseRent, string memory _propertyAddress) public {\r\n        propertyAddress = _propertyAddress;\r\n        currentStatus = Status.Vacant;\r\n        isBiddingActive = false;\r\n        baseRent = _baseRent;\r\n        currentRent = _baseRent;\r\n    }\r\n\r\n    modifier ifVacant {\r\n        require(currentStatus == Status.Vacant, \"The property is currently occupied!\");\r\n        _;\r\n    }\r\n\r\n    modifier ifNotBiddingActive {\r\n        require(isBiddingActive == false, \"Bidding is active on this property. Bid instead!\");\r\n        _;\r\n    }\r\n\r\n    modifier ifCorrectRentProvided {\r\n        require(msg.value == currentRent, \"Incorrect rent provided!\");\r\n        _;\r\n    }\r\n\r\n    function reserveProperty() payable ifVacant ifNotBiddingActive ifCorrectRentProvided public {\r\n        currentStatus = Status.Occupied;\r\n        isBiddingActive = false;\r\n        propertyOwner.transfer(msg.value);\r\n        emit OccupyProperty(msg.sender, msg.value);\r\n    }\r\n\r\n    function setBaseRent(uint _newBaseRent) public {\r\n        baseRent = _newBaseRent;\r\n    }\r\n\r\n    function getStatus() public view returns(Status) {\r\n        return currentStatus;\r\n    }\r\n\r\n    function getBaseRent() public view returns(uint) {\r\n        return baseRent;\r\n    }\r\n\r\n}",
  "sourcePath": "C:/Users/Arsh/Desktop/Dreddit Final/contracts/ChainBNBProperty.sol",
  "compiler": {
    "name": "solc",
    "version": "0.5.16+commit.9c3226ce.Emscripten.clang"
  },
  "schemaVersion": "3.2.3",
  "updatedAt": "2020-08-04T07:25:47.701Z",
  "devdoc": {
    "methods": {}
  },
  "userdoc": {
    "methods": {}
  }
}