{
  "contractName": "ChainBNB",
  "abi": [
    {
      "constant": true,
      "inputs": [
        {
          "internalType": "uint256",
          "name": "",
          "type": "uint256"
        }
      ],
      "name": "rentalPlaces",
      "outputs": [
        {
          "internalType": "uint256",
          "name": "rentalPlaceID",
          "type": "uint256"
        },
        {
          "internalType": "address payable",
          "name": "placeOwner",
          "type": "address"
        },
        {
          "internalType": "uint256",
          "name": "currentRent",
          "type": "uint256"
        },
        {
          "internalType": "string",
          "name": "imageIPFShash",
          "type": "string"
        },
        {
          "internalType": "string",
          "name": "placeAddress",
          "type": "string"
        },
        {
          "internalType": "bool",
          "name": "isBiddingActive",
          "type": "bool"
        },
        {
          "internalType": "uint256",
          "name": "biddingStartDate",
          "type": "uint256"
        },
        {
          "internalType": "uint256",
          "name": "biddingEndDate",
          "type": "uint256"
        },
        {
          "internalType": "uint256",
          "name": "highestBid",
          "type": "uint256"
        },
        {
          "internalType": "address",
          "name": "highestBidder",
          "type": "address"
        },
        {
          "internalType": "uint256",
          "name": "numberOfBids",
          "type": "uint256"
        },
        {
          "internalType": "string",
          "name": "monthOccupancy",
          "type": "string"
        }
      ],
      "payable": false,
      "stateMutability": "view",
      "type": "function"
    },
    {
      "constant": false,
      "inputs": [
        {
          "internalType": "uint256",
          "name": "_rent",
          "type": "uint256"
        },
        {
          "internalType": "string",
          "name": "_placeAddress",
          "type": "string"
        },
        {
          "internalType": "string",
          "name": "_imageIPFShash",
          "type": "string"
        },
        {
          "internalType": "string",
          "name": "_occupancy",
          "type": "string"
        }
      ],
      "name": "addRentalPlace",
      "outputs": [],
      "payable": false,
      "stateMutability": "nonpayable",
      "type": "function"
    },
    {
      "constant": true,
      "inputs": [],
      "name": "getNumRentalPlaces",
      "outputs": [
        {
          "internalType": "uint256",
          "name": "",
          "type": "uint256"
        }
      ],
      "payable": false,
      "stateMutability": "view",
      "type": "function"
    },
    {
      "constant": false,
      "inputs": [
        {
          "internalType": "uint256",
          "name": "_rentalPlaceID",
          "type": "uint256"
        },
        {
          "internalType": "uint256",
          "name": "_startIndex",
          "type": "uint256"
        },
        {
          "internalType": "uint256",
          "name": "_endIndex",
          "type": "uint256"
        }
      ],
      "name": "rentPlace",
      "outputs": [],
      "payable": true,
      "stateMutability": "payable",
      "type": "function"
    },
    {
      "constant": true,
      "inputs": [
        {
          "internalType": "uint256",
          "name": "_rentalPlaceID",
          "type": "uint256"
        },
        {
          "internalType": "address",
          "name": "_renter",
          "type": "address"
        }
      ],
      "name": "getRenterOccupancy",
      "outputs": [
        {
          "internalType": "string",
          "name": "",
          "type": "string"
        }
      ],
      "payable": false,
      "stateMutability": "view",
      "type": "function"
    },
    {
      "constant": true,
      "inputs": [
        {
          "internalType": "uint256",
          "name": "_rentalPlaceID",
          "type": "uint256"
        },
        {
          "internalType": "address",
          "name": "_bidder",
          "type": "address"
        }
      ],
      "name": "getBiddersBid",
      "outputs": [
        {
          "internalType": "uint256",
          "name": "",
          "type": "uint256"
        }
      ],
      "payable": false,
      "stateMutability": "view",
      "type": "function"
    },
    {
      "constant": false,
      "inputs": [
        {
          "internalType": "uint256",
          "name": "_rentalPlaceID",
          "type": "uint256"
        },
        {
          "internalType": "uint256",
          "name": "_newRent",
          "type": "uint256"
        }
      ],
      "name": "updateRent",
      "outputs": [],
      "payable": false,
      "stateMutability": "nonpayable",
      "type": "function"
    },
    {
      "constant": false,
      "inputs": [
        {
          "internalType": "uint256",
          "name": "_rentalPlaceID",
          "type": "uint256"
        },
        {
          "internalType": "bool",
          "name": "_newBiddingStatus",
          "type": "bool"
        },
        {
          "internalType": "uint256",
          "name": "_startDate",
          "type": "uint256"
        },
        {
          "internalType": "uint256",
          "name": "_endDate",
          "type": "uint256"
        }
      ],
      "name": "changeBiddingStatus",
      "outputs": [],
      "payable": false,
      "stateMutability": "nonpayable",
      "type": "function"
    },
    {
      "constant": false,
      "inputs": [
        {
          "internalType": "uint256",
          "name": "_rentalPlaceID",
          "type": "uint256"
        },
        {
          "internalType": "uint256",
          "name": "_bid",
          "type": "uint256"
        }
      ],
      "name": "registerBid",
      "outputs": [],
      "payable": false,
      "stateMutability": "nonpayable",
      "type": "function"
    },
    {
      "constant": false,
      "inputs": [
        {
          "internalType": "uint256",
          "name": "_rentalPlaceID",
          "type": "uint256"
        }
      ],
      "name": "closeBids",
      "outputs": [],
      "payable": false,
      "stateMutability": "nonpayable",
      "type": "function"
    }
  ],
  "bytecode": "0x608060405234801561001057600080fd5b5061185a806100206000396000f3fe6080604052600436106100915760003560e01c806390c7ade61161005957806390c7ade614610383578063be925825146103de578063ecf7f04d146104b2578063f309f9c414610521578063fef14d8a1461074857610091565b80630c364957146100965780632e416fd9146100db57806356306792146102db5780637c68ed73146103165780638681efa914610341575b600080fd5b3480156100a257600080fd5b506100d9600480360360408110156100b957600080fd5b81019080803590602001909291908035906020019092919050505061078d565b005b3480156100e757600080fd5b506102d9600480360360808110156100fe57600080fd5b81019080803590602001909291908035906020019064010000000081111561012557600080fd5b82018360208201111561013757600080fd5b8035906020019184600183028401116401000000008311171561015957600080fd5b91908080601f016020809104026020016040519081016040528093929190818152602001838380828437600081840152601f19601f820116905080830192505050505050509192919290803590602001906401000000008111156101bc57600080fd5b8201836020820111156101ce57600080fd5b803590602001918460018302840111640100000000831117156101f057600080fd5b91908080601f016020809104026020016040519081016040528093929190818152602001838380828437600081840152601f19601f8201169050808301925050505050505091929192908035906020019064010000000081111561025357600080fd5b82018360208201111561026557600080fd5b8035906020019184600183028401116401000000008311171561028757600080fd5b91908080601f016020809104026020016040519081016040528093929190818152602001838380828437600081840152601f19601f82011690508083019250505050505050919291929050505061096a565b005b3480156102e757600080fd5b50610314600480360360208110156102fe57600080fd5b8101908080359060200190929190505050610a6c565b005b34801561032257600080fd5b5061032b610b75565b6040518082815260200191505060405180910390f35b6103816004803603606081101561035757600080fd5b81019080803590602001909291908035906020019092919080359060200190929190505050610b7e565b005b34801561038f57600080fd5b506103dc600480360360808110156103a657600080fd5b81019080803590602001909291908035151590602001909291908035906020019092919080359060200190929190505050611104565b005b3480156103ea57600080fd5b506104376004803603604081101561040157600080fd5b8101908080359060200190929190803573ffffffffffffffffffffffffffffffffffffffff169060200190929190505050611228565b6040518080602001828103825283818151815260200191508051906020019080838360005b8381101561047757808201518184015260208101905061045c565b50505050905090810190601f1680156104a45780820380516001836020036101000a031916815260200191505b509250505060405180910390f35b3480156104be57600080fd5b5061050b600480360360408110156104d557600080fd5b8101908080359060200190929190803573ffffffffffffffffffffffffffffffffffffffff169060200190929190505050611321565b6040518082815260200191505060405180910390f35b34801561052d57600080fd5b5061055a6004803603602081101561054457600080fd5b8101908080359060200190929190505050611382565b604051808d81526020018c73ffffffffffffffffffffffffffffffffffffffff1673ffffffffffffffffffffffffffffffffffffffff1681526020018b815260200180602001806020018a1515151581526020018981526020018881526020018781526020018673ffffffffffffffffffffffffffffffffffffffff1673ffffffffffffffffffffffffffffffffffffffff1681526020018581526020018060200184810384528d818151815260200191508051906020019080838360005b83811015610634578082015181840152602081019050610619565b50505050905090810190601f1680156106615780820380516001836020036101000a031916815260200191505b5084810383528c818151815260200191508051906020019080838360005b8381101561069a57808201518184015260208101905061067f565b50505050905090810190601f1680156106c75780820380516001836020036101000a031916815260200191505b50848103825285818151815260200191508051906020019080838360005b838110156107005780820151818401526020810190506106e5565b50505050905090810190601f16801561072d5780820380516001836020036101000a031916815260200191505b509f5050505050505050505050505050505060405180910390f35b34801561075457600080fd5b5061078b6004803603604081101561076b57600080fd5b8101908080359060200190929190803590602001909291905050506115f7565b005b3373ffffffffffffffffffffffffffffffffffffffff166001600084815260200190815260200160002060010160009054906101000a900473ffffffffffffffffffffffffffffffffffffffff1673ffffffffffffffffffffffffffffffffffffffff161415610848576040517f08c379a00000000000000000000000000000000000000000000000000000000081526004018080602001828103825260248152602001806118026024913960400191505060405180910390fd5b600060016000848152602001908152602001600020600c0160003373ffffffffffffffffffffffffffffffffffffffff1673ffffffffffffffffffffffffffffffffffffffff168152602001908152602001600020905066038d7ea4c68000820281600101819055506001600084815260200190815260200160002060080154821061093f57816001600085815260200190815260200160002060080181905550336001600085815260200190815260200160002060090160006101000a81548173ffffffffffffffffffffffffffffffffffffffff021916908373ffffffffffffffffffffffffffffffffffffffff1602179055505b60016000848152602001908152602001600020600a0160008154809291906001019190505550505050565b60008081548092919060010191905055506000600160008054815260200190815260200160002090506000548160000181905550338160010160006101000a81548173ffffffffffffffffffffffffffffffffffffffff021916908373ffffffffffffffffffffffffffffffffffffffff160217905550828160030190805190602001906109f99291906116f6565b5083816004019080519060200190610a129291906116f6565b508181600b019080519060200190610a2b9291906116f6565b5060008160050160006101000a81548160ff02191690831515021790555066038d7ea4c6800085028160020181905550600081600a01819055505050505050565b3373ffffffffffffffffffffffffffffffffffffffff166001600083815260200190815260200160002060010160009054906101000a900473ffffffffffffffffffffffffffffffffffffffff1673ffffffffffffffffffffffffffffffffffffffff1614610b43576040517f08c379a00000000000000000000000000000000000000000000000000000000081526004018080602001828103825260198152602001807f4f6e6c79206f776e65722063616e20636c6f736520426964730000000000000081525060200191505060405180910390fd5b60006001600083815260200190815260200160002060050160006101000a81548160ff02191690831515021790555050565b60008054905090565b3373ffffffffffffffffffffffffffffffffffffffff166001600085815260200190815260200160002060010160009054906101000a900473ffffffffffffffffffffffffffffffffffffffff1673ffffffffffffffffffffffffffffffffffffffff161415610c39576040517f08c379a00000000000000000000000000000000000000000000000000000000081526004018080602001828103825260228152602001806117e06022913960400191505060405180910390fd5b600182820301600160008581526020019081526020016000206002015402341015610caf576040517f08c379a000000000000000000000000000000000000000000000000000000000815260040180806020018281038252602281526020018061179c6022913960400191505060405180910390fd5b600060016000858152602001908152602001600020600d0160003373ffffffffffffffffffffffffffffffffffffffff1673ffffffffffffffffffffffffffffffffffffffff16815260200190815260200160002090506001600085815260200190815260200160002060010160009054906101000a900473ffffffffffffffffffffffffffffffffffffffff1673ffffffffffffffffffffffffffffffffffffffff166108fc349081150290604051600060405180830381858888f19350505050158015610d82573d6000803e3d6000fd5b50606060016000868152602001908152602001600020600b018054600181600116156101000203166002900480601f016020809104026020016040519081016040528092919081815260200182805460018160011615610100020316600290048015610e2f5780601f10610e0457610100808354040283529160200191610e2f565b820191906000526020600020905b815481529060010190602001808311610e1257829003601f168201915b5050505050905060006001850390505b83811015610eb0577f3100000000000000000000000000000000000000000000000000000000000000828281518110610e7457fe5b60200101907effffffffffffffffffffffffffffffffffffffffffffffffffffffffffffff1916908160001a9053508080600101915050610e3f565b508060016000878152602001908152602001600020600b019080519060200190610edb9291906116f6565b50606060016000878152602001908152602001600020600b018054600181600116156101000203166002900480601f016020809104026020016040519081016040528092919081815260200182805460018160011615610100020316600290048015610f885780601f10610f5d57610100808354040283529160200191610f88565b820191906000526020600020905b815481529060010190602001808311610f6b57829003601f168201915b5050505050905060008090505b8151811015611067577f3100000000000000000000000000000000000000000000000000000000000000828281518110610fcb57fe5b602001015160f81c60f81b7effffffffffffffffffffffffffffffffffffffffffffffffffffffffffffff19161461105a577f300000000000000000000000000000000000000000000000000000000000000082828151811061102a57fe5b60200101907effffffffffffffffffffffffffffffffffffffffffffffffffffffffffffff1916908160001a9053505b8080600101915050610f95565b5060006001860390505b848110156110e2577f31000000000000000000000000000000000000000000000000000000000000008282815181106110a657fe5b60200101907effffffffffffffffffffffffffffffffffffffffffffffffffffffffffffff1916908160001a9053508080600101915050611071565b50808360010190805190602001906110fb9291906116f6565b50505050505050565b3373ffffffffffffffffffffffffffffffffffffffff166001600086815260200190815260200160002060010160009054906101000a900473ffffffffffffffffffffffffffffffffffffffff1673ffffffffffffffffffffffffffffffffffffffff16146111be576040517f08c379a00000000000000000000000000000000000000000000000000000000081526004018080602001828103825260228152602001806117be6022913960400191505060405180910390fd5b826001600086815260200190815260200160002060050160006101000a81548160ff02191690831515021790555081600160008681526020019081526020016000206006018190555080600160008681526020019081526020016000206007018190555050505050565b606060016000848152602001908152602001600020600d0160008373ffffffffffffffffffffffffffffffffffffffff1673ffffffffffffffffffffffffffffffffffffffff1681526020019081526020016000206001018054600181600116156101000203166002900480601f0160208091040260200160405190810160405280929190818152602001828054600181600116156101000203166002900480156113145780601f106112e957610100808354040283529160200191611314565b820191906000526020600020905b8154815290600101906020018083116112f757829003601f168201915b5050505050905092915050565b600060016000848152602001908152602001600020600c0160008373ffffffffffffffffffffffffffffffffffffffff1673ffffffffffffffffffffffffffffffffffffffff16815260200190815260200160002060010154905092915050565b60016020528060005260406000206000915090508060000154908060010160009054906101000a900473ffffffffffffffffffffffffffffffffffffffff1690806002015490806003018054600181600116156101000203166002900480601f0160208091040260200160405190810160405280929190818152602001828054600181600116156101000203166002900480156114605780601f1061143557610100808354040283529160200191611460565b820191906000526020600020905b81548152906001019060200180831161144357829003601f168201915b505050505090806004018054600181600116156101000203166002900480601f0160208091040260200160405190810160405280929190818152602001828054600181600116156101000203166002900480156114fe5780601f106114d3576101008083540402835291602001916114fe565b820191906000526020600020905b8154815290600101906020018083116114e157829003601f168201915b5050505050908060050160009054906101000a900460ff16908060060154908060070154908060080154908060090160009054906101000a900473ffffffffffffffffffffffffffffffffffffffff169080600a01549080600b018054600181600116156101000203166002900480601f0160208091040260200160405190810160405280929190818152602001828054600181600116156101000203166002900480156115ed5780601f106115c2576101008083540402835291602001916115ed565b820191906000526020600020905b8154815290600101906020018083116115d057829003601f168201915b505050505090508c565b3373ffffffffffffffffffffffffffffffffffffffff166001600084815260200190815260200160002060010160009054906101000a900473ffffffffffffffffffffffffffffffffffffffff1673ffffffffffffffffffffffffffffffffffffffff16146116ce576040517f08c379a000000000000000000000000000000000000000000000000000000000815260040180806020018281038252601f8152602001807f4f6e6c7920746865206f776e65722063616e206d6f646966792072656e74210081525060200191505060405180910390fd5b66038d7ea4c68000810260016000848152602001908152602001600020600201819055505050565b828054600181600116156101000203166002900490600052602060002090601f016020900481019282601f1061173757805160ff1916838001178555611765565b82800160010185558215611765579182015b82811115611764578251825591602001919060010190611749565b5b5090506117729190611776565b5090565b61179891905b8082111561179457600081600090555060010161177c565b5090565b9056fe496e636f727265637420616d6f756e74206f662072656e742070726f7669646564214f6e6c7920746865206f776e65722063616e20656e61626c652062696464696e67214f776e65722063616e6e6f742072656e74207468656972206f776e20706c616365214f776e65722063616e6e6f7420626964206f6e207468656972206f776e20706c61636521a265627a7a723158205873d899168db93980bc73613858d7f4fbf7c885c9820199140777a20839700664736f6c63430005100032",
  "source": "pragma solidity ^0.5.0;\r\n\r\ncontract ChainBNB {\r\n    uint numRentalPlaces;\r\n    \r\n    struct Renter {\r\n        address payable currentRenter;\r\n        string myOccupancyStatus;\r\n    }\r\n    \r\n    struct Bidder {\r\n        address bidderAddress;\r\n        uint bid;\r\n    }\r\n    \r\n    struct RentalPlace {\r\n        uint rentalPlaceID;\r\n        address payable placeOwner;\r\n        uint currentRent;\r\n        string imageIPFShash;\r\n        string placeAddress; \r\n        bool isBiddingActive;\r\n        uint biddingStartDate;\r\n        uint biddingEndDate;\r\n        uint highestBid;\r\n        address highestBidder;\r\n        uint numberOfBids;\r\n        string monthOccupancy;\r\n        mapping (address => Bidder) bidders;\r\n        mapping (address => Renter) renters;\r\n    }\r\n    \r\n    mapping (uint => RentalPlace) public rentalPlaces;\r\n\r\n    function addRentalPlace(uint _rent, string memory _placeAddress, string memory _imageIPFShash, string memory _occupancy) public {\r\n        numRentalPlaces++;\r\n        RentalPlace storage newRentalPlace = rentalPlaces[numRentalPlaces];\r\n        newRentalPlace.rentalPlaceID = numRentalPlaces;\r\n        newRentalPlace.placeOwner = msg.sender;\r\n        newRentalPlace.imageIPFShash = _imageIPFShash;\r\n        newRentalPlace.placeAddress = _placeAddress;\r\n        newRentalPlace.monthOccupancy = _occupancy;\r\n        newRentalPlace.isBiddingActive = false;\r\n        newRentalPlace.currentRent = _rent * 1 finney;\r\n        newRentalPlace.numberOfBids = 0;\r\n    }\r\n\r\n    function getNumRentalPlaces() public view returns (uint) {\r\n        return numRentalPlaces;\r\n    }\r\n\r\n    function rentPlace(uint _rentalPlaceID, uint _startIndex, uint _endIndex) public payable {\r\n        require(rentalPlaces[_rentalPlaceID].placeOwner != msg.sender, \"Owner cannot rent their own place!\");\r\n        require(msg.value >= rentalPlaces[_rentalPlaceID].currentRent * (_endIndex - _startIndex + 1), \"Incorrect amount of rent provided!\");\r\n        Renter storage newRenter = rentalPlaces[_rentalPlaceID].renters[msg.sender];\r\n        \r\n        rentalPlaces[_rentalPlaceID].placeOwner.transfer(msg.value);\r\n        \r\n        bytes memory temp = bytes(rentalPlaces[_rentalPlaceID].monthOccupancy);\r\n        for(uint i = _startIndex-1; i < _endIndex; i++) {\r\n            temp[i] = \"1\";\r\n        }\r\n        rentalPlaces[_rentalPlaceID].monthOccupancy = string(temp);\r\n        \r\n        bytes memory temp2 = bytes(rentalPlaces[_rentalPlaceID].monthOccupancy);\r\n        for(uint j = 0; j < temp2.length; j++) {\r\n            if(temp2[j] != \"1\")\r\n            {\r\n                temp2[j] = \"0\";\r\n            }\r\n        }\r\n        for(uint k = _startIndex-1; k < _endIndex; k++) {\r\n            temp2[k] = \"1\";\r\n        }\r\n        newRenter.myOccupancyStatus = string(temp2);\r\n    }\r\n    \r\n    function getRenterOccupancy(uint _rentalPlaceID, address _renter) public view returns (string memory) {\r\n        return rentalPlaces[_rentalPlaceID].renters[_renter].myOccupancyStatus;\r\n    }\r\n    \r\n    function getBiddersBid(uint _rentalPlaceID, address _bidder) public view returns (uint) {\r\n        return rentalPlaces[_rentalPlaceID].bidders[_bidder].bid;\r\n    }\r\n    \r\n    function updateRent(uint _rentalPlaceID, uint _newRent) public {\r\n        require(rentalPlaces[_rentalPlaceID].placeOwner == msg.sender, \"Only the owner can modify rent!\");\r\n        rentalPlaces[_rentalPlaceID].currentRent = _newRent * 1 finney;\r\n    }\r\n\r\n    function changeBiddingStatus(uint _rentalPlaceID, bool _newBiddingStatus, uint _startDate, uint _endDate) public {\r\n        require(rentalPlaces[_rentalPlaceID].placeOwner == msg.sender, \"Only the owner can enable bidding!\");\r\n        rentalPlaces[_rentalPlaceID].isBiddingActive = _newBiddingStatus;\r\n        rentalPlaces[_rentalPlaceID].biddingStartDate = _startDate;\r\n        rentalPlaces[_rentalPlaceID].biddingEndDate = _endDate;\r\n        \r\n    }\r\n    \r\n    function registerBid(uint _rentalPlaceID, uint _bid) public {\r\n        require(rentalPlaces[_rentalPlaceID].placeOwner != msg.sender, \"Owner cannot bid on their own place!\");\r\n        Bidder storage newBidder = rentalPlaces[_rentalPlaceID].bidders[msg.sender];\r\n        newBidder.bid = _bid * 1 finney;\r\n\r\n        if(_bid >= rentalPlaces[_rentalPlaceID].highestBid)\r\n        {\r\n            rentalPlaces[_rentalPlaceID].highestBid = _bid;\r\n            rentalPlaces[_rentalPlaceID].highestBidder = msg.sender;\r\n        }\r\n        rentalPlaces[_rentalPlaceID].numberOfBids++;\r\n    }\r\n\r\n    function closeBids(uint _rentalPlaceID) public {\r\n        require(rentalPlaces[_rentalPlaceID].placeOwner == msg.sender, \"Only owner can close Bids\");\r\n        rentalPlaces[_rentalPlaceID].isBiddingActive = false;\r\n    }\r\n}",
  "sourcePath": "C:/Users/Arsh/Desktop/Dreddit Final/contracts/ChainBNB.sol",
  "compiler": {
    "name": "solc",
    "version": "0.5.16+commit.9c3226ce.Emscripten.clang"
  },
  "schemaVersion": "3.2.3",
  "updatedAt": "2020-08-15T04:20:27.344Z",
  "networkType": "ethereum",
  "devdoc": {
    "methods": {}
  },
  "userdoc": {
    "methods": {}
  }
}